{
  "contractName": "Admin",
  "abi": [
    {
      "constant": true,
      "inputs": [
        {
          "name": "",
          "type": "uint256"
        }
      ],
      "name": "allowlist",
      "outputs": [
        {
          "name": "",
          "type": "address"
        }
      ],
      "payable": false,
      "stateMutability": "view",
      "type": "function"
    },
    {
      "inputs": [],
      "payable": false,
      "stateMutability": "nonpayable",
      "type": "constructor"
    },
    {
      "anonymous": false,
      "inputs": [
        {
          "indexed": false,
          "name": "adminAdded",
          "type": "bool"
        },
        {
          "indexed": false,
          "name": "account",
          "type": "address"
        },
        {
          "indexed": false,
          "name": "message",
          "type": "string"
        }
      ],
      "name": "AdminAdded",
      "type": "event"
    },
    {
      "anonymous": false,
      "inputs": [
        {
          "indexed": false,
          "name": "adminRemoved",
          "type": "bool"
        },
        {
          "indexed": false,
          "name": "account",
          "type": "address"
        }
      ],
      "name": "AdminRemoved",
      "type": "event"
    },
    {
      "constant": true,
      "inputs": [
        {
          "name": "_address",
          "type": "address"
        }
      ],
      "name": "isAuthorized",
      "outputs": [
        {
          "name": "",
          "type": "bool"
        }
      ],
      "payable": false,
      "stateMutability": "view",
      "type": "function"
    },
    {
      "constant": false,
      "inputs": [
        {
          "name": "_address",
          "type": "address"
        }
      ],
      "name": "addAdmin",
      "outputs": [
        {
          "name": "",
          "type": "bool"
        }
      ],
      "payable": false,
      "stateMutability": "nonpayable",
      "type": "function"
    },
    {
      "constant": false,
      "inputs": [
        {
          "name": "_address",
          "type": "address"
        }
      ],
      "name": "removeAdmin",
      "outputs": [
        {
          "name": "",
          "type": "bool"
        }
      ],
      "payable": false,
      "stateMutability": "nonpayable",
      "type": "function"
    },
    {
      "constant": true,
      "inputs": [],
      "name": "getAdmins",
      "outputs": [
        {
          "name": "",
          "type": "address[]"
        }
      ],
      "payable": false,
      "stateMutability": "view",
      "type": "function"
    },
    {
      "constant": false,
      "inputs": [
        {
          "name": "accounts",
          "type": "address[]"
        }
      ],
      "name": "addAdmins",
      "outputs": [
        {
          "name": "",
          "type": "bool"
        }
      ],
      "payable": false,
      "stateMutability": "nonpayable",
      "type": "function"
    }
  ],
  "bytecode": "0x608060405234801561001057600080fd5b506100203361002660201b60201c565b5061012a565b600080600160008473ffffffffffffffffffffffffffffffffffffffff1673ffffffffffffffffffffffffffffffffffffffff1681526020019081526020016000205414156101205760008290806001815401808255809150509060018203906000526020600020016000909192909190916101000a81548173ffffffffffffffffffffffffffffffffffffffff021916908373ffffffffffffffffffffffffffffffffffffffff160217905550600160008473ffffffffffffffffffffffffffffffffffffffff1673ffffffffffffffffffffffffffffffffffffffff1681526020019081526020016000208190555060019050610125565b600090505b919050565b611064806101396000396000f3fe608060405234801561001057600080fd5b50600436106100625760003560e01c80631785f53c1461006757806331ae450b146100c357806369c458241461012257806370480275146101905780639c54df64146101ec578063fe9fbb801461027d575b600080fd5b6100a96004803603602081101561007d57600080fd5b81019080803573ffffffffffffffffffffffffffffffffffffffff1690602001909291905050506102d9565b604051808215151515815260200191505060405180910390f35b6100cb610462565b6040518080602001828103825283818151815260200191508051906020019060200280838360005b8381101561010e5780820151818401526020810190506100f3565b505050509050019250505060405180910390f35b61014e6004803603602081101561013857600080fd5b81019080803590602001909291905050506104f0565b604051808273ffffffffffffffffffffffffffffffffffffffff1673ffffffffffffffffffffffffffffffffffffffff16815260200191505060405180910390f35b6101d2600480360360208110156101a657600080fd5b81019080803573ffffffffffffffffffffffffffffffffffffffff16906020019092919050505061052c565b604051808215151515815260200191505060405180910390f35b6102636004803603602081101561020257600080fd5b810190808035906020019064010000000081111561021f57600080fd5b82018360208201111561023157600080fd5b8035906020019184602083028401116401000000008311171561025357600080fd5b90919293919293905050506107e1565b604051808215151515815260200191505060405180910390f35b6102bf6004803603602081101561029357600080fd5b81019080803573ffffffffffffffffffffffffffffffffffffffff1690602001909291905050506108b0565b604051808215151515815260200191505060405180910390f35b60006102e4336108b0565b610356576040517f08c379a00000000000000000000000000000000000000000000000000000000081526004018080602001828103825260158152602001807f53656e646572206e6f7420617574686f72697a6564000000000000000000000081525060200191505060405180910390fd5b818073ffffffffffffffffffffffffffffffffffffffff163373ffffffffffffffffffffffffffffffffffffffff1614156103dc576040517f08c379a0000000000000000000000000000000000000000000000000000000008152600401808060200182810382526032815260200180610fd26032913960400191505060405180910390fd5b60006103e7846108c2565b90507ffbc33d7f56a96d61d4abddfc7042046c18a827519bf20efea2aae15bf15ba9c4818560405180831515151581526020018273ffffffffffffffffffffffffffffffffffffffff1673ffffffffffffffffffffffffffffffffffffffff1681526020019250505060405180910390a18092505050919050565b606060008054806020026020016040519081016040528092919081815260200182805480156104e657602002820191906000526020600020905b8160009054906101000a900473ffffffffffffffffffffffffffffffffffffffff1673ffffffffffffffffffffffffffffffffffffffff168152602001906001019080831161049c575b5050505050905090565b600081815481106104fd57fe5b906000526020600020016000915054906101000a900473ffffffffffffffffffffffffffffffffffffffff1681565b6000610537336108b0565b6105a9576040517f08c379a00000000000000000000000000000000000000000000000000000000081526004018080602001828103825260158152602001807f53656e646572206e6f7420617574686f72697a6564000000000000000000000081525060200191505060405180910390fd5b8173ffffffffffffffffffffffffffffffffffffffff163373ffffffffffffffffffffffffffffffffffffffff161415610672577f7de09b89cd6310ad2dbbef9b99bee3df114399d19b156a3dc6afb8f5ff60781a60008360405180831515151581526020018273ffffffffffffffffffffffffffffffffffffffff1673ffffffffffffffffffffffffffffffffffffffff168152602001806020018281038252602c815260200180611004602c9139604001935050505060405180910390a1600090506107dc565b600061067d83610a82565b90506060816106c1576040518060400160405280601b81526020017f4163636f756e7420697320616c726561647920616e2041646d696e00000000008152506106f8565b6040518060400160405280602081526020017f41646d696e206163636f756e74206164646564207375636365737366756c6c798152505b90507f7de09b89cd6310ad2dbbef9b99bee3df114399d19b156a3dc6afb8f5ff60781a82858360405180841515151581526020018373ffffffffffffffffffffffffffffffffffffffff1673ffffffffffffffffffffffffffffffffffffffff16815260200180602001828103825283818151815260200191508051906020019080838360005b8381101561079a57808201518184015260208101905061077f565b50505050905090810190601f1680156107c75780820380516001836020036101000a031916815260200191505b5094505050505060405180910390a181925050505b919050565b60006107ec336108b0565b61085e576040517f08c379a00000000000000000000000000000000000000000000000000000000081526004018080602001828103825260158152602001807f53656e646572206e6f7420617574686f72697a6564000000000000000000000081525060200191505060405180910390fd5b6108a8838380806020026020016040519081016040528093929190818152602001838360200280828437600081840152601f19601f82011690508083019250505050505050610b86565b905092915050565b60006108bb82610f34565b9050919050565b600080600160008473ffffffffffffffffffffffffffffffffffffffff1673ffffffffffffffffffffffffffffffffffffffff16815260200190815260200160002054905060008111801561091c57506000805490508111155b15610a77576000805490508114610a0f576000806001600080549050038154811061094357fe5b9060005260206000200160009054906101000a900473ffffffffffffffffffffffffffffffffffffffff169050806000600184038154811061098157fe5b9060005260206000200160006101000a81548173ffffffffffffffffffffffffffffffffffffffff021916908373ffffffffffffffffffffffffffffffffffffffff16021790555081600160008373ffffffffffffffffffffffffffffffffffffffff1673ffffffffffffffffffffffffffffffffffffffff16815260200190815260200160002081905550505b6001600081818054905003915081610a279190610f80565b506000600160008573ffffffffffffffffffffffffffffffffffffffff1673ffffffffffffffffffffffffffffffffffffffff168152602001908152602001600020819055506001915050610a7d565b60009150505b919050565b600080600160008473ffffffffffffffffffffffffffffffffffffffff1673ffffffffffffffffffffffffffffffffffffffff168152602001908152602001600020541415610b7c5760008290806001815401808255809150509060018203906000526020600020016000909192909190916101000a81548173ffffffffffffffffffffffffffffffffffffffff021916908373ffffffffffffffffffffffffffffffffffffffff160217905550600160008473ffffffffffffffffffffffffffffffffffffffff1673ffffffffffffffffffffffffffffffffffffffff1681526020019081526020016000208190555060019050610b81565b600090505b919050565b6000806001905060008090505b8351811015610f2a57838181518110610ba857fe5b602002602001015173ffffffffffffffffffffffffffffffffffffffff163373ffffffffffffffffffffffffffffffffffffffff161415610c94577f7de09b89cd6310ad2dbbef9b99bee3df114399d19b156a3dc6afb8f5ff60781a6000858381518110610c1257fe5b602002602001015160405180831515151581526020018273ffffffffffffffffffffffffffffffffffffffff1673ffffffffffffffffffffffffffffffffffffffff168152602001806020018281038252602c815260200180611004602c9139604001935050505060405180910390a1818015610c8d575060005b9150610f1d565b610cb0848281518110610ca357fe5b6020026020010151610f34565b15610d83577f7de09b89cd6310ad2dbbef9b99bee3df114399d19b156a3dc6afb8f5ff60781a6000858381518110610ce457fe5b602002602001015160405180831515151581526020018273ffffffffffffffffffffffffffffffffffffffff1673ffffffffffffffffffffffffffffffffffffffff168152602001806020018281038252601b8152602001807f4163636f756e7420697320616c726561647920616e2041646d696e0000000000815250602001935050505060405180910390a1818015610d7c575060005b9150610f1c565b6000610da1858381518110610d9457fe5b6020026020010151610a82565b9050606081610de5576040518060400160405280601b81526020017f4163636f756e7420697320616c726561647920616e2041646d696e0000000000815250610e1c565b6040518060400160405280602081526020017f41646d696e206163636f756e74206164646564207375636365737366756c6c798152505b90507f7de09b89cd6310ad2dbbef9b99bee3df114399d19b156a3dc6afb8f5ff60781a82878581518110610e4c57fe5b60200260200101518360405180841515151581526020018373ffffffffffffffffffffffffffffffffffffffff1673ffffffffffffffffffffffffffffffffffffffff16815260200180602001828103825283818151815260200191508051906020019080838360005b83811015610ed1578082015181840152602081019050610eb6565b50505050905090810190601f168015610efe5780820380516001836020036101000a031916815260200191505b5094505050505060405180910390a1838015610f175750815b935050505b5b8080600101915050610b93565b5080915050919050565b600080600160008473ffffffffffffffffffffffffffffffffffffffff1673ffffffffffffffffffffffffffffffffffffffff1681526020019081526020016000205414159050919050565b815481835581811115610fa757818360005260206000209182019101610fa69190610fac565b5b505050565b610fce91905b80821115610fca576000816000905550600101610fb2565b5090565b9056fe43616e6e6f7420696e766f6b65206d6574686f642077697468206f776e206163636f756e7420617320706172616d65746572416464696e67206f776e206163636f756e742061732041646d696e206973206e6f74207065726d6974746564a265627a7a72305820f19fe4f2c071bf23cbb7f9ecc6fffe292e6c2fd7c7cd45ce87d540979b54b26064736f6c63430005090032",
  "source": "pragma solidity 0.5.9;\n\nimport \"./AdminProxy.sol\";\nimport \"./AdminList.sol\";\n\n\ncontract Admin is AdminProxy, AdminList {\n    modifier onlyAdmin() {\n        require(isAuthorized(msg.sender), \"Sender not authorized\");\n        _;\n    }\n\n    modifier notSelf(address _address) {\n        require(msg.sender != _address, \"Cannot invoke method with own account as parameter\");\n        _;\n    }\n\n    constructor() public {\n        add(msg.sender);\n    }\n\n    function isAuthorized(address _address) public view returns (bool) {\n        return exists(_address);\n    }\n\n    function addAdmin(address _address) external onlyAdmin returns (bool) {\n        if (msg.sender == _address) {\n            emit AdminAdded(false, _address, \"Adding own account as Admin is not permitted\");\n            return false;\n        } else {\n            bool result = add(_address);\n            string memory message = result ? \"Admin account added successfully\" : \"Account is already an Admin\";\n            emit AdminAdded(result, _address, message);\n            return result;\n        }\n    }\n\n    function removeAdmin(address _address) external onlyAdmin notSelf(_address) returns (bool) {\n        bool removed = remove(_address);\n        emit AdminRemoved(removed, _address);\n        return removed;\n    }\n\n    function getAdmins() external view returns (address[] memory){\n        return allowlist; // mythx-disable-line SWC-128\n    }\n\n    function addAdmins(address[] calldata accounts) external onlyAdmin returns (bool) {\n        return addAll(accounts);\n    }\n}\n",
  "sourcePath": "/Users/frank/Desktop/fine-grained-permissioning-demo/account-permissioning-contracts/contracts/Admin.sol",
  "compiler": {
    "name": "solc",
    "version": "0.5.9+commit.e560f70d.Emscripten.clang"
  },
  "schemaVersion": "3.0.9",
  "updatedAt": "2022-03-21T05:09:32.369Z",
  "devdoc": {
    "methods": {}
  },
  "userdoc": {
    "methods": {}
  }
}