{
  "contractName": "DelegatedAccessControl",
  "abi": [
    {
      "inputs": [
        {
          "internalType": "contract IAccessControl",
          "name": "theAccessControlDelegate",
          "type": "address"
        }
      ],
      "stateMutability": "nonpayable",
      "type": "constructor"
    },
    {
      "inputs": [
        {
          "internalType": "bytes32",
          "name": "role",
          "type": "bytes32"
        },
        {
          "internalType": "address",
          "name": "account",
          "type": "address"
        }
      ],
      "name": "checkRole",
      "outputs": [],
      "stateMutability": "view",
      "type": "function"
    },
    {
      "inputs": [
        {
          "internalType": "bytes32",
          "name": "role",
          "type": "bytes32"
        },
        {
          "internalType": "address",
          "name": "account",
          "type": "address"
        }
      ],
      "name": "hasRole",
      "outputs": [
        {
          "internalType": "bool",
          "name": "",
          "type": "bool"
        }
      ],
      "stateMutability": "view",
      "type": "function"
    }
  ],
  "bytecode": "0x608060405234801561001057600080fd5b5060405161053b38038061053b833981810160405281019061003291906100ed565b806000806101000a81548173ffffffffffffffffffffffffffffffffffffffff021916908373ffffffffffffffffffffffffffffffffffffffff1602179055505061011a565b600080fd5b600073ffffffffffffffffffffffffffffffffffffffff82169050919050565b60006100a88261007d565b9050919050565b60006100ba8261009d565b9050919050565b6100ca816100af565b81146100d557600080fd5b50565b6000815190506100e7816100c1565b92915050565b60006020828403121561010357610102610078565b5b6000610111848285016100d8565b91505092915050565b610412806101296000396000f3fe608060405234801561001057600080fd5b50600436106100365760003560e01c806312d9a6ad1461003b57806391d1485414610057575b600080fd5b61005560048036038101906100509190610223565b610087565b005b610071600480360381019061006c9190610223565b6100d4565b60405161007e919061027e565b60405180910390f35b61009182826100d4565b6100d0576040517f08c379a00000000000000000000000000000000000000000000000000000000081526004016100c79061031c565b60405180910390fd5b5050565b60008060009054906101000a900473ffffffffffffffffffffffffffffffffffffffff1673ffffffffffffffffffffffffffffffffffffffff166391d1485484846040518363ffffffff1660e01b815260040161013292919061035a565b60206040518083038186803b15801561014a57600080fd5b505afa15801561015e573d6000803e3d6000fd5b505050506040513d601f19601f8201168201806040525081019061018291906103af565b905092915050565b600080fd5b6000819050919050565b6101a28161018f565b81146101ad57600080fd5b50565b6000813590506101bf81610199565b92915050565b600073ffffffffffffffffffffffffffffffffffffffff82169050919050565b60006101f0826101c5565b9050919050565b610200816101e5565b811461020b57600080fd5b50565b60008135905061021d816101f7565b92915050565b6000806040838503121561023a5761023961018a565b5b6000610248858286016101b0565b92505060206102598582860161020e565b9150509250929050565b60008115159050919050565b61027881610263565b82525050565b6000602082019050610293600083018461026f565b92915050565b600082825260208201905092915050565b7f44656c656761746564416363657373436f6e74726f6c3a2073656e646572206960008201527f73206e6f74207065726d69747465640000000000000000000000000000000000602082015250565b6000610306602f83610299565b9150610311826102aa565b604082019050919050565b60006020820190508181036000830152610335816102f9565b9050919050565b6103458161018f565b82525050565b610354816101e5565b82525050565b600060408201905061036f600083018561033c565b61037c602083018461034b565b9392505050565b61038c81610263565b811461039757600080fd5b50565b6000815190506103a981610383565b92915050565b6000602082840312156103c5576103c461018a565b5b60006103d38482850161039a565b9150509291505056fea26469706673582212201ed0a541a9c1b984666fcee13a43b4ab741217bb0d8173c2989288096b2bba0964736f6c63430008090033",
  "immutableReferences": {},
  "source": "pragma solidity ^0.8.0;\n\nimport \"@openzeppelin/contracts/access/IAccessControl.sol\";\n\ncontract DelegatedAccessControl {\n    IAccessControl accessControlDelegate;\n\n    constructor(IAccessControl theAccessControlDelegate) {\n        accessControlDelegate = theAccessControlDelegate;\n    }\n\n    modifier onlyRole(bytes32 role) {\n        checkRole(role, msg.sender);\n        _;\n    }\n\n    function checkRole(bytes32 role, address account) public view {\n        if (!hasRole(role, account)) {\n            revert(\"DelegatedAccessControl: sender is not permitted\");\n        }\n    }\n\n    function hasRole(bytes32 role, address account) public view returns (bool) {\n        return accessControlDelegate.hasRole(role, account);\n    }\n\n}\n",
  "sourcePath": "/Users/frank/Desktop/fine-grained-permissioning-demo/contracts/DelegatedAccessControl.sol",
  "compiler": {
    "name": "solc",
    "version": "0.8.9+commit.e5eed63a.Emscripten.clang"
  },
  "schemaVersion": "3.4.3",
  "updatedAt": "2022-03-14T05:47:23.424Z",
  "devdoc": {
    "kind": "dev",
    "methods": {},
    "version": 1
  },
  "userdoc": {
    "kind": "user",
    "methods": {},
    "version": 1
  }
}