{
  "contractName": "DelegateDemo",
  "abi": [
    {
      "inputs": [
        {
          "internalType": "contract IAccessControl",
          "name": "accessControlDelegate",
          "type": "address"
        }
      ],
      "stateMutability": "nonpayable",
      "type": "constructor"
    },
    {
      "inputs": [],
      "name": "WRITER_ROLE",
      "outputs": [
        {
          "internalType": "bytes32",
          "name": "",
          "type": "bytes32"
        }
      ],
      "stateMutability": "view",
      "type": "function",
      "constant": true
    },
    {
      "inputs": [
        {
          "internalType": "bytes32",
          "name": "role",
          "type": "bytes32"
        },
        {
          "internalType": "address",
          "name": "account",
          "type": "address"
        }
      ],
      "name": "checkRole",
      "outputs": [],
      "stateMutability": "view",
      "type": "function",
      "constant": true
    },
    {
      "inputs": [
        {
          "internalType": "bytes32",
          "name": "role",
          "type": "bytes32"
        },
        {
          "internalType": "address",
          "name": "account",
          "type": "address"
        }
      ],
      "name": "hasRole",
      "outputs": [
        {
          "internalType": "bool",
          "name": "",
          "type": "bool"
        }
      ],
      "stateMutability": "view",
      "type": "function",
      "constant": true
    },
    {
      "inputs": [
        {
          "internalType": "uint256",
          "name": "newValue",
          "type": "uint256"
        }
      ],
      "name": "write",
      "outputs": [],
      "stateMutability": "nonpayable",
      "type": "function"
    },
    {
      "inputs": [],
      "name": "read",
      "outputs": [
        {
          "internalType": "uint256",
          "name": "",
          "type": "uint256"
        }
      ],
      "stateMutability": "view",
      "type": "function",
      "constant": true
    }
  ],
  "bytecode": "0x6080604052600060015534801561001557600080fd5b506040516106c73803806106c7833981810160405281019061003791906100f4565b80806000806101000a81548173ffffffffffffffffffffffffffffffffffffffff021916908373ffffffffffffffffffffffffffffffffffffffff1602179055505050610121565b600080fd5b600073ffffffffffffffffffffffffffffffffffffffff82169050919050565b60006100af82610084565b9050919050565b60006100c1826100a4565b9050919050565b6100d1816100b6565b81146100dc57600080fd5b50565b6000815190506100ee816100c8565b92915050565b60006020828403121561010a5761010961007f565b5b6000610118848285016100df565b91505092915050565b610597806101306000396000f3fe608060405234801561001057600080fd5b50600436106100575760003560e01c806312d9a6ad1461005c5780632f048afa1461007857806357de26a41461009457806391d14854146100b25780639beaab7b146100e2575b600080fd5b61007660048036038101906100719190610300565b610100565b005b610092600480360381019061008d9190610376565b61014d565b005b61009c610183565b6040516100a991906103b2565b60405180910390f35b6100cc60048036038101906100c79190610300565b61018d565b6040516100d991906103e8565b60405180910390f35b6100ea610243565b6040516100f79190610412565b60405180910390f35b61010a828261018d565b610149576040517f08c379a0000000000000000000000000000000000000000000000000000000008152600401610140906104b0565b60405180910390fd5b5050565b7f2b8f168f361ac1393a163ed4adfa899a87be7b7c71645167bdaddd822ae453c86101788133610100565b816001819055505050565b6000600154905090565b60008060009054906101000a900473ffffffffffffffffffffffffffffffffffffffff1673ffffffffffffffffffffffffffffffffffffffff166391d1485484846040518363ffffffff1660e01b81526004016101eb9291906104df565b60206040518083038186803b15801561020357600080fd5b505afa158015610217573d6000803e3d6000fd5b505050506040513d601f19601f8201168201806040525081019061023b9190610534565b905092915050565b7f2b8f168f361ac1393a163ed4adfa899a87be7b7c71645167bdaddd822ae453c881565b600080fd5b6000819050919050565b61027f8161026c565b811461028a57600080fd5b50565b60008135905061029c81610276565b92915050565b600073ffffffffffffffffffffffffffffffffffffffff82169050919050565b60006102cd826102a2565b9050919050565b6102dd816102c2565b81146102e857600080fd5b50565b6000813590506102fa816102d4565b92915050565b6000806040838503121561031757610316610267565b5b60006103258582860161028d565b9250506020610336858286016102eb565b9150509250929050565b6000819050919050565b61035381610340565b811461035e57600080fd5b50565b6000813590506103708161034a565b92915050565b60006020828403121561038c5761038b610267565b5b600061039a84828501610361565b91505092915050565b6103ac81610340565b82525050565b60006020820190506103c760008301846103a3565b92915050565b60008115159050919050565b6103e2816103cd565b82525050565b60006020820190506103fd60008301846103d9565b92915050565b61040c8161026c565b82525050565b60006020820190506104276000830184610403565b92915050565b600082825260208201905092915050565b7f44656c656761746564416363657373436f6e74726f6c3a2073656e646572206960008201527f73206e6f74207065726d69747465640000000000000000000000000000000000602082015250565b600061049a602f8361042d565b91506104a58261043e565b604082019050919050565b600060208201905081810360008301526104c98161048d565b9050919050565b6104d9816102c2565b82525050565b60006040820190506104f46000830185610403565b61050160208301846104d0565b9392505050565b610511816103cd565b811461051c57600080fd5b50565b60008151905061052e81610508565b92915050565b60006020828403121561054a57610549610267565b5b60006105588482850161051f565b9150509291505056fea26469706673582212209a7a210f47cfbfb103574d7f8647636830160e6f1bc76df72b931b7e102c1af464736f6c63430008090033",
  "immutableReferences": {},
  "source": "pragma solidity ^0.8.0;\n\nimport \"@openzeppelin/contracts/access/IAccessControl.sol\";\nimport \"./DelegatedAccessControl.sol\";\n\ncontract DelegateDemo is DelegatedAccessControl {\n    bytes32 public constant WRITER_ROLE = keccak256(\"WRITER_ROLE\");\n\n    uint256 value = 0;\n\n    constructor(IAccessControl accessControlDelegate) DelegatedAccessControl(accessControlDelegate) {\n    }\n\n    function write(uint256 newValue) public onlyRole(WRITER_ROLE) {\n        value = newValue;\n    }\n\n    function read() public view returns(uint256) {\n        return value;\n    }\n}\n",
  "sourcePath": "/Users/frank/Desktop/fine-grained-permissioning-demo/contracts/DelegateDemo.sol",
  "compiler": {
    "name": "solc",
    "version": "0.8.9+commit.e5eed63a.Emscripten.clang"
  },
  "schemaVersion": "3.4.3",
  "updatedAt": "2022-03-25T02:57:56.218Z",
  "networkType": "ethereum",
  "devdoc": {
    "kind": "dev",
    "methods": {},
    "version": 1
  },
  "userdoc": {
    "kind": "user",
    "methods": {},
    "version": 1
  }
}