{
  "contractName": "DirectDemo",
  "abi": [
    {
      "inputs": [],
      "stateMutability": "nonpayable",
      "type": "constructor"
    },
    {
      "anonymous": false,
      "inputs": [
        {
          "indexed": true,
          "internalType": "bytes32",
          "name": "role",
          "type": "bytes32"
        },
        {
          "indexed": true,
          "internalType": "bytes32",
          "name": "previousAdminRole",
          "type": "bytes32"
        },
        {
          "indexed": true,
          "internalType": "bytes32",
          "name": "newAdminRole",
          "type": "bytes32"
        }
      ],
      "name": "RoleAdminChanged",
      "type": "event"
    },
    {
      "anonymous": false,
      "inputs": [
        {
          "indexed": true,
          "internalType": "bytes32",
          "name": "role",
          "type": "bytes32"
        },
        {
          "indexed": true,
          "internalType": "address",
          "name": "account",
          "type": "address"
        },
        {
          "indexed": true,
          "internalType": "address",
          "name": "sender",
          "type": "address"
        }
      ],
      "name": "RoleGranted",
      "type": "event"
    },
    {
      "anonymous": false,
      "inputs": [
        {
          "indexed": true,
          "internalType": "bytes32",
          "name": "role",
          "type": "bytes32"
        },
        {
          "indexed": true,
          "internalType": "address",
          "name": "account",
          "type": "address"
        },
        {
          "indexed": true,
          "internalType": "address",
          "name": "sender",
          "type": "address"
        }
      ],
      "name": "RoleRevoked",
      "type": "event"
    },
    {
      "inputs": [],
      "name": "DEFAULT_ADMIN_ROLE",
      "outputs": [
        {
          "internalType": "bytes32",
          "name": "",
          "type": "bytes32"
        }
      ],
      "stateMutability": "view",
      "type": "function",
      "constant": true
    },
    {
      "inputs": [],
      "name": "WRITER_ROLE",
      "outputs": [
        {
          "internalType": "bytes32",
          "name": "",
          "type": "bytes32"
        }
      ],
      "stateMutability": "view",
      "type": "function",
      "constant": true
    },
    {
      "inputs": [
        {
          "internalType": "bytes32",
          "name": "role",
          "type": "bytes32"
        }
      ],
      "name": "getRoleAdmin",
      "outputs": [
        {
          "internalType": "bytes32",
          "name": "",
          "type": "bytes32"
        }
      ],
      "stateMutability": "view",
      "type": "function",
      "constant": true
    },
    {
      "inputs": [
        {
          "internalType": "bytes32",
          "name": "role",
          "type": "bytes32"
        },
        {
          "internalType": "address",
          "name": "account",
          "type": "address"
        }
      ],
      "name": "grantRole",
      "outputs": [],
      "stateMutability": "nonpayable",
      "type": "function"
    },
    {
      "inputs": [
        {
          "internalType": "bytes32",
          "name": "role",
          "type": "bytes32"
        },
        {
          "internalType": "address",
          "name": "account",
          "type": "address"
        }
      ],
      "name": "hasRole",
      "outputs": [
        {
          "internalType": "bool",
          "name": "",
          "type": "bool"
        }
      ],
      "stateMutability": "view",
      "type": "function",
      "constant": true
    },
    {
      "inputs": [
        {
          "internalType": "bytes32",
          "name": "role",
          "type": "bytes32"
        },
        {
          "internalType": "address",
          "name": "account",
          "type": "address"
        }
      ],
      "name": "renounceRole",
      "outputs": [],
      "stateMutability": "nonpayable",
      "type": "function"
    },
    {
      "inputs": [
        {
          "internalType": "bytes32",
          "name": "role",
          "type": "bytes32"
        },
        {
          "internalType": "address",
          "name": "account",
          "type": "address"
        }
      ],
      "name": "revokeRole",
      "outputs": [],
      "stateMutability": "nonpayable",
      "type": "function"
    },
    {
      "inputs": [
        {
          "internalType": "bytes4",
          "name": "interfaceId",
          "type": "bytes4"
        }
      ],
      "name": "supportsInterface",
      "outputs": [
        {
          "internalType": "bool",
          "name": "",
          "type": "bool"
        }
      ],
      "stateMutability": "view",
      "type": "function",
      "constant": true
    },
    {
      "inputs": [
        {
          "internalType": "uint256",
          "name": "newValue",
          "type": "uint256"
        }
      ],
      "name": "write",
      "outputs": [],
      "stateMutability": "nonpayable",
      "type": "function"
    },
    {
      "inputs": [],
      "name": "read",
      "outputs": [
        {
          "internalType": "uint256",
          "name": "",
          "type": "uint256"
        }
      ],
      "stateMutability": "view",
      "type": "function",
      "constant": true
    }
  ],
  "bytecode": "0x6080604052600060015534801561001557600080fd5b506100296000801b3361002e60201b60201c565b6101a0565b61003e828261004260201b60201c565b5050565b610052828261012e60201b60201c565b61012a57600160008084815260200190815260200160002060000160008373ffffffffffffffffffffffffffffffffffffffff1673ffffffffffffffffffffffffffffffffffffffff16815260200190815260200160002060006101000a81548160ff0219169083151502179055506100cf61019860201b60201c565b73ffffffffffffffffffffffffffffffffffffffff168173ffffffffffffffffffffffffffffffffffffffff16837f2f8788117e7eff1d82e926ec794901d17c78024a50270940304540a733656f0d60405160405180910390a45b5050565b600080600084815260200190815260200160002060000160008373ffffffffffffffffffffffffffffffffffffffff1673ffffffffffffffffffffffffffffffffffffffff16815260200190815260200160002060009054906101000a900460ff16905092915050565b600033905090565b61102f806101af6000396000f3fe608060405234801561001057600080fd5b506004361061009e5760003560e01c806357de26a41161006657806357de26a41461015757806391d14854146101755780639beaab7b146101a5578063a217fddf146101c3578063d547741f146101e15761009e565b806301ffc9a7146100a3578063248a9ca3146100d35780632f048afa146101035780632f2ff15d1461011f57806336568abe1461013b575b600080fd5b6100bd60048036038101906100b891906109b0565b6101fd565b6040516100ca91906109f8565b60405180910390f35b6100ed60048036038101906100e89190610a49565b610277565b6040516100fa9190610a85565b60405180910390f35b61011d60048036038101906101189190610ad6565b610296565b005b61013960048036038101906101349190610b61565b6102d3565b005b61015560048036038101906101509190610b61565b6102fc565b005b61015f61037f565b60405161016c9190610bb0565b60405180910390f35b61018f600480360381019061018a9190610b61565b610389565b60405161019c91906109f8565b60405180910390f35b6101ad6103f3565b6040516101ba9190610a85565b60405180910390f35b6101cb610417565b6040516101d89190610a85565b60405180910390f35b6101fb60048036038101906101f69190610b61565b61041e565b005b60007f7965db0b000000000000000000000000000000000000000000000000000000007bffffffffffffffffffffffffffffffffffffffffffffffffffffffff1916827bffffffffffffffffffffffffffffffffffffffffffffffffffffffff19161480610270575061026f82610447565b5b9050919050565b6000806000838152602001908152602001600020600101549050919050565b7f2b8f168f361ac1393a163ed4adfa899a87be7b7c71645167bdaddd822ae453c86102c8816102c36104b1565b6104b9565b816001819055505050565b6102dc82610277565b6102ed816102e86104b1565b6104b9565b6102f78383610556565b505050565b6103046104b1565b73ffffffffffffffffffffffffffffffffffffffff168173ffffffffffffffffffffffffffffffffffffffff1614610371576040517f08c379a000000000000000000000000000000000000000000000000000000000815260040161036890610c4e565b60405180910390fd5b61037b8282610636565b5050565b6000600154905090565b600080600084815260200190815260200160002060000160008373ffffffffffffffffffffffffffffffffffffffff1673ffffffffffffffffffffffffffffffffffffffff16815260200190815260200160002060009054906101000a900460ff16905092915050565b7f2b8f168f361ac1393a163ed4adfa899a87be7b7c71645167bdaddd822ae453c881565b6000801b81565b61042782610277565b610438816104336104b1565b6104b9565b6104428383610636565b505050565b60007f01ffc9a7000000000000000000000000000000000000000000000000000000007bffffffffffffffffffffffffffffffffffffffffffffffffffffffff1916827bffffffffffffffffffffffffffffffffffffffffffffffffffffffff1916149050919050565b600033905090565b6104c38282610389565b610552576104e88173ffffffffffffffffffffffffffffffffffffffff166014610717565b6104f68360001c6020610717565b604051602001610507929190610d80565b6040516020818303038152906040526040517f08c379a00000000000000000000000000000000000000000000000000000000081526004016105499190610e04565b60405180910390fd5b5050565b6105608282610389565b61063257600160008084815260200190815260200160002060000160008373ffffffffffffffffffffffffffffffffffffffff1673ffffffffffffffffffffffffffffffffffffffff16815260200190815260200160002060006101000a81548160ff0219169083151502179055506105d76104b1565b73ffffffffffffffffffffffffffffffffffffffff168173ffffffffffffffffffffffffffffffffffffffff16837f2f8788117e7eff1d82e926ec794901d17c78024a50270940304540a733656f0d60405160405180910390a45b5050565b6106408282610389565b1561071357600080600084815260200190815260200160002060000160008373ffffffffffffffffffffffffffffffffffffffff1673ffffffffffffffffffffffffffffffffffffffff16815260200190815260200160002060006101000a81548160ff0219169083151502179055506106b86104b1565b73ffffffffffffffffffffffffffffffffffffffff168173ffffffffffffffffffffffffffffffffffffffff16837ff6391f5c32d9c69d2a47ea670b442974b53935d1edc7fd64eb21e047a839171b60405160405180910390a45b5050565b60606000600283600261072a9190610e55565b6107349190610eaf565b67ffffffffffffffff81111561074d5761074c610f05565b5b6040519080825280601f01601f19166020018201604052801561077f5781602001600182028036833780820191505090505b5090507f3000000000000000000000000000000000000000000000000000000000000000816000815181106107b7576107b6610f34565b5b60200101907effffffffffffffffffffffffffffffffffffffffffffffffffffffffffffff1916908160001a9053507f78000000000000000000000000000000000000000000000000000000000000008160018151811061081b5761081a610f34565b5b60200101907effffffffffffffffffffffffffffffffffffffffffffffffffffffffffffff1916908160001a9053506000600184600261085b9190610e55565b6108659190610eaf565b90505b6001811115610905577f3031323334353637383961626364656600000000000000000000000000000000600f8616601081106108a7576108a6610f34565b5b1a60f81b8282815181106108be576108bd610f34565b5b60200101907effffffffffffffffffffffffffffffffffffffffffffffffffffffffffffff1916908160001a905350600485901c9450806108fe90610f63565b9050610868565b5060008414610949576040517f08c379a000000000000000000000000000000000000000000000000000000000815260040161094090610fd9565b60405180910390fd5b8091505092915050565b600080fd5b60007fffffffff0000000000000000000000000000000000000000000000000000000082169050919050565b61098d81610958565b811461099857600080fd5b50565b6000813590506109aa81610984565b92915050565b6000602082840312156109c6576109c5610953565b5b60006109d48482850161099b565b91505092915050565b60008115159050919050565b6109f2816109dd565b82525050565b6000602082019050610a0d60008301846109e9565b92915050565b6000819050919050565b610a2681610a13565b8114610a3157600080fd5b50565b600081359050610a4381610a1d565b92915050565b600060208284031215610a5f57610a5e610953565b5b6000610a6d84828501610a34565b91505092915050565b610a7f81610a13565b82525050565b6000602082019050610a9a6000830184610a76565b92915050565b6000819050919050565b610ab381610aa0565b8114610abe57600080fd5b50565b600081359050610ad081610aaa565b92915050565b600060208284031215610aec57610aeb610953565b5b6000610afa84828501610ac1565b91505092915050565b600073ffffffffffffffffffffffffffffffffffffffff82169050919050565b6000610b2e82610b03565b9050919050565b610b3e81610b23565b8114610b4957600080fd5b50565b600081359050610b5b81610b35565b92915050565b60008060408385031215610b7857610b77610953565b5b6000610b8685828601610a34565b9250506020610b9785828601610b4c565b9150509250929050565b610baa81610aa0565b82525050565b6000602082019050610bc56000830184610ba1565b92915050565b600082825260208201905092915050565b7f416363657373436f6e74726f6c3a2063616e206f6e6c792072656e6f756e636560008201527f20726f6c657320666f722073656c660000000000000000000000000000000000602082015250565b6000610c38602f83610bcb565b9150610c4382610bdc565b604082019050919050565b60006020820190508181036000830152610c6781610c2b565b9050919050565b600081905092915050565b7f416363657373436f6e74726f6c3a206163636f756e7420000000000000000000600082015250565b6000610caf601783610c6e565b9150610cba82610c79565b601782019050919050565b600081519050919050565b60005b83811015610cee578082015181840152602081019050610cd3565b83811115610cfd576000848401525b50505050565b6000610d0e82610cc5565b610d188185610c6e565b9350610d28818560208601610cd0565b80840191505092915050565b7f206973206d697373696e6720726f6c6520000000000000000000000000000000600082015250565b6000610d6a601183610c6e565b9150610d7582610d34565b601182019050919050565b6000610d8b82610ca2565b9150610d978285610d03565b9150610da282610d5d565b9150610dae8284610d03565b91508190509392505050565b6000601f19601f8301169050919050565b6000610dd682610cc5565b610de08185610bcb565b9350610df0818560208601610cd0565b610df981610dba565b840191505092915050565b60006020820190508181036000830152610e1e8184610dcb565b905092915050565b7f4e487b7100000000000000000000000000000000000000000000000000000000600052601160045260246000fd5b6000610e6082610aa0565b9150610e6b83610aa0565b9250817fffffffffffffffffffffffffffffffffffffffffffffffffffffffffffffffff0483118215151615610ea457610ea3610e26565b5b828202905092915050565b6000610eba82610aa0565b9150610ec583610aa0565b9250827fffffffffffffffffffffffffffffffffffffffffffffffffffffffffffffffff03821115610efa57610ef9610e26565b5b828201905092915050565b7f4e487b7100000000000000000000000000000000000000000000000000000000600052604160045260246000fd5b7f4e487b7100000000000000000000000000000000000000000000000000000000600052603260045260246000fd5b6000610f6e82610aa0565b91506000821415610f8257610f81610e26565b5b600182039050919050565b7f537472696e67733a20686578206c656e67746820696e73756666696369656e74600082015250565b6000610fc3602083610bcb565b9150610fce82610f8d565b602082019050919050565b60006020820190508181036000830152610ff281610fb6565b905091905056fea26469706673582212206b58a3426a451bd0ceedcc22a0ade87e544918e5f20267e214624d1ec08cc17364736f6c63430008090033",
  "immutableReferences": {},
  "source": "pragma solidity ^0.8.0;\n\nimport \"@openzeppelin/contracts/access/AccessControl.sol\";\n\ncontract DirectDemo is AccessControl {\n    bytes32 public constant WRITER_ROLE = keccak256(\"WRITER_ROLE\");\n\n    uint256 value = 0;\n\n    constructor() {\n        _setupRole(DEFAULT_ADMIN_ROLE, msg.sender);\n    }\n\n    function write(uint256 newValue) public onlyRole(WRITER_ROLE) {\n        value = newValue;\n    }\n\n    function read() public view returns(uint256) {\n        return value;\n    }\n}\n",
  "sourcePath": "/Users/frank/Desktop/fine-grained-permissioning-demo/contracts/DirectDemo.sol",
  "compiler": {
    "name": "solc",
    "version": "0.8.9+commit.e5eed63a.Emscripten.clang"
  },
  "schemaVersion": "3.4.3",
  "updatedAt": "2022-03-21T05:09:40.543Z",
  "networkType": "ethereum",
  "devdoc": {
    "kind": "dev",
    "methods": {
      "getRoleAdmin(bytes32)": {
        "details": "Returns the admin role that controls `role`. See {grantRole} and {revokeRole}. To change a role's admin, use {_setRoleAdmin}."
      },
      "grantRole(bytes32,address)": {
        "details": "Grants `role` to `account`. If `account` had not been already granted `role`, emits a {RoleGranted} event. Requirements: - the caller must have ``role``'s admin role."
      },
      "hasRole(bytes32,address)": {
        "details": "Returns `true` if `account` has been granted `role`."
      },
      "renounceRole(bytes32,address)": {
        "details": "Revokes `role` from the calling account. Roles are often managed via {grantRole} and {revokeRole}: this function's purpose is to provide a mechanism for accounts to lose their privileges if they are compromised (such as when a trusted device is misplaced). If the calling account had been granted `role`, emits a {RoleRevoked} event. Requirements: - the caller must be `account`."
      },
      "revokeRole(bytes32,address)": {
        "details": "Revokes `role` from `account`. If `account` had been granted `role`, emits a {RoleRevoked} event. Requirements: - the caller must have ``role``'s admin role."
      },
      "supportsInterface(bytes4)": {
        "details": "See {IERC165-supportsInterface}."
      }
    },
    "version": 1
  },
  "userdoc": {
    "kind": "user",
    "methods": {},
    "version": 1
  }
}