{
  "contractName": "AccountRules",
  "abi": [
    {
      "constant": true,
      "inputs": [
        {
          "name": "index",
          "type": "uint256"
        }
      ],
      "name": "getByIndex",
      "outputs": [
        {
          "name": "account",
          "type": "address"
        }
      ],
      "payable": false,
      "stateMutability": "view",
      "type": "function"
    },
    {
      "constant": true,
      "inputs": [],
      "name": "getAccounts",
      "outputs": [
        {
          "name": "",
          "type": "address[]"
        }
      ],
      "payable": false,
      "stateMutability": "view",
      "type": "function"
    },
    {
      "inputs": [
        {
          "name": "_ingressContract",
          "type": "address"
        },
        {
          "name": "_storage",
          "type": "address"
        }
      ],
      "payable": false,
      "stateMutability": "nonpayable",
      "type": "constructor"
    },
    {
      "anonymous": false,
      "inputs": [
        {
          "indexed": false,
          "name": "accountAdded",
          "type": "bool"
        },
        {
          "indexed": false,
          "name": "accountAddress",
          "type": "address"
        }
      ],
      "name": "AccountAdded",
      "type": "event"
    },
    {
      "anonymous": false,
      "inputs": [
        {
          "indexed": false,
          "name": "accountRemoved",
          "type": "bool"
        },
        {
          "indexed": false,
          "name": "accountAddress",
          "type": "address"
        }
      ],
      "name": "AccountRemoved",
      "type": "event"
    },
    {
      "constant": true,
      "inputs": [],
      "name": "getContractVersion",
      "outputs": [
        {
          "name": "",
          "type": "uint256"
        }
      ],
      "payable": false,
      "stateMutability": "view",
      "type": "function"
    },
    {
      "constant": true,
      "inputs": [],
      "name": "isReadOnly",
      "outputs": [
        {
          "name": "",
          "type": "bool"
        }
      ],
      "payable": false,
      "stateMutability": "view",
      "type": "function"
    },
    {
      "constant": false,
      "inputs": [],
      "name": "enterReadOnly",
      "outputs": [
        {
          "name": "",
          "type": "bool"
        }
      ],
      "payable": false,
      "stateMutability": "nonpayable",
      "type": "function"
    },
    {
      "constant": false,
      "inputs": [],
      "name": "exitReadOnly",
      "outputs": [
        {
          "name": "",
          "type": "bool"
        }
      ],
      "payable": false,
      "stateMutability": "nonpayable",
      "type": "function"
    },
    {
      "constant": true,
      "inputs": [
        {
          "name": "sender",
          "type": "address"
        },
        {
          "name": "target",
          "type": "address"
        },
        {
          "name": "",
          "type": "uint256"
        },
        {
          "name": "",
          "type": "uint256"
        },
        {
          "name": "",
          "type": "uint256"
        },
        {
          "name": "",
          "type": "bytes"
        }
      ],
      "name": "transactionAllowed",
      "outputs": [
        {
          "name": "",
          "type": "bool"
        }
      ],
      "payable": false,
      "stateMutability": "view",
      "type": "function"
    },
    {
      "constant": true,
      "inputs": [
        {
          "name": "_account",
          "type": "address"
        }
      ],
      "name": "accountPermitted",
      "outputs": [
        {
          "name": "",
          "type": "bool"
        }
      ],
      "payable": false,
      "stateMutability": "view",
      "type": "function"
    },
    {
      "constant": false,
      "inputs": [
        {
          "name": "account",
          "type": "address"
        }
      ],
      "name": "addAccount",
      "outputs": [
        {
          "name": "",
          "type": "bool"
        }
      ],
      "payable": false,
      "stateMutability": "nonpayable",
      "type": "function"
    },
    {
      "constant": false,
      "inputs": [
        {
          "name": "account",
          "type": "address"
        }
      ],
      "name": "removeAccount",
      "outputs": [
        {
          "name": "",
          "type": "bool"
        }
      ],
      "payable": false,
      "stateMutability": "nonpayable",
      "type": "function"
    },
    {
      "constant": false,
      "inputs": [
        {
          "name": "_account",
          "type": "address"
        },
        {
          "name": "_allowed",
          "type": "bool"
        }
      ],
      "name": "setCreateContractPermission",
      "outputs": [
        {
          "name": "",
          "type": "bool"
        }
      ],
      "payable": false,
      "stateMutability": "nonpayable",
      "type": "function"
    },
    {
      "constant": false,
      "inputs": [
        {
          "name": "_account",
          "type": "address"
        }
      ],
      "name": "getCreateContractPermission",
      "outputs": [
        {
          "name": "",
          "type": "bool"
        }
      ],
      "payable": false,
      "stateMutability": "nonpayable",
      "type": "function"
    },
    {
      "constant": true,
      "inputs": [],
      "name": "getSize",
      "outputs": [
        {
          "name": "",
          "type": "uint256"
        }
      ],
      "payable": false,
      "stateMutability": "view",
      "type": "function"
    },
    {
      "constant": false,
      "inputs": [
        {
          "name": "accounts",
          "type": "address[]"
        }
      ],
      "name": "addAccounts",
      "outputs": [
        {
          "name": "",
          "type": "bool"
        }
      ],
      "payable": false,
      "stateMutability": "nonpayable",
      "type": "function"
    }
  ],
  "bytecode": "0x608060405260008060146101000a81548160ff021916908315150217905550622dc6c060015534801561003157600080fd5b5060405162002894380380620028948339818101604052604081101561005657600080fd5b810190808051906020019092919080519060200190929190505050610080816100c860201b60201c565b81600260006101000a81548173ffffffffffffffffffffffffffffffffffffffff021916908373ffffffffffffffffffffffffffffffffffffffff160217905550505061010b565b806000806101000a81548173ffffffffffffffffffffffffffffffffffffffff021916908373ffffffffffffffffffffffffffffffffffffffff16021790555050565b612779806200011b6000396000f3fe608060405234801561001057600080fd5b50600436106100ea5760003560e01c8063ac71abde1161008c578063d8cec92511610066578063d8cec925146104f8578063dc2a60f61461051a578063de8fa4311461053c578063e89b0e1e1461055a576100ea565b8063ac71abde146103af578063c4740a9514610440578063d37d9dbe1461049c576100ea565b80633d1b7f0f116100c85780633d1b7f0f146101db5780638a48ac03146102435780638aa10435146102a2578063936421d5146102c0576100ea565b80630c6e35d5146100ef5780630f68f0b3146101115780632d883a731461016d575b600080fd5b6100f76105b6565b604051808215151515815260200191505060405180910390f35b6101536004803603602081101561012757600080fd5b81019080803573ffffffffffffffffffffffffffffffffffffffff169060200190929190505050610966565b604051808215151515815260200191505060405180910390f35b6101996004803603602081101561018357600080fd5b8101908080359060200190929190505050610978565b604051808273ffffffffffffffffffffffffffffffffffffffff1673ffffffffffffffffffffffffffffffffffffffff16815260200191505060405180910390f35b610229600480360360408110156101f157600080fd5b81019080803573ffffffffffffffffffffffffffffffffffffffff169060200190929190803515159060200190929190505050610a2e565b604051808215151515815260200191505060405180910390f35b61024b610d46565b6040518080602001828103825283818151815260200191508051906020019060200280838360005b8381101561028e578082015181840152602081019050610273565b505050509050019250505060405180910390f35b6102aa610e45565b6040518082815260200191505060405180910390f35b610395600480360360c08110156102d657600080fd5b81019080803573ffffffffffffffffffffffffffffffffffffffff169060200190929190803573ffffffffffffffffffffffffffffffffffffffff1690602001909291908035906020019092919080359060200190929190803590602001909291908035906020019064010000000081111561035157600080fd5b82018360208201111561036357600080fd5b8035906020019184600183028401116401000000008311171561038557600080fd5b9091929391929390505050610e4f565b604051808215151515815260200191505060405180910390f35b610426600480360360208110156103c557600080fd5b81019080803590602001906401000000008111156103e257600080fd5b8201836020820111156103f457600080fd5b8035906020019184602083028401116401000000008311171561041657600080fd5b9091929391929390505050610ebd565b604051808215151515815260200191505060405180910390f35b6104826004803603602081101561045657600080fd5b81019080803573ffffffffffffffffffffffffffffffffffffffff169060200190929190505050611215565b604051808215151515815260200191505060405180910390f35b6104de600480360360208110156104b257600080fd5b81019080803573ffffffffffffffffffffffffffffffffffffffff169060200190929190505050611606565b604051808215151515815260200191505060405180910390f35b61050061191c565b604051808215151515815260200191505060405180910390f35b610522611ccd565b604051808215151515815260200191505060405180910390f35b610544611ce3565b6040518082815260200191505060405180910390f35b61059c6004803603602081101561057057600080fd5b81019080803573ffffffffffffffffffffffffffffffffffffffff169060200190929190505050611cf2565b604051808215151515815260200191505060405180910390f35b600080600260009054906101000a900473ffffffffffffffffffffffffffffffffffffffff1673ffffffffffffffffffffffffffffffffffffffff16630d2020dd600260009054906101000a900473ffffffffffffffffffffffffffffffffffffffff1673ffffffffffffffffffffffffffffffffffffffff16631e7c27cb6040518163ffffffff1660e01b815260040160206040518083038186803b15801561065f57600080fd5b505afa158015610673573d6000803e3d6000fd5b505050506040513d602081101561068957600080fd5b81019080805190602001909291905050506040518263ffffffff1660e01b81526004018082815260200191505060206040518083038186803b1580156106ce57600080fd5b505afa1580156106e2573d6000803e3d6000fd5b505050506040513d60208110156106f857600080fd5b81019080805190602001909291905050509050600073ffffffffffffffffffffffffffffffffffffffff168173ffffffffffffffffffffffffffffffffffffffff161415610791576040517f08c379a00000000000000000000000000000000000000000000000000000000081526004018080602001828103825260348152602001806127116034913960400191505060405180910390fd5b8073ffffffffffffffffffffffffffffffffffffffff1663fe9fbb80336040518263ffffffff1660e01b8152600401808273ffffffffffffffffffffffffffffffffffffffff1673ffffffffffffffffffffffffffffffffffffffff16815260200191505060206040518083038186803b15801561080e57600080fd5b505afa158015610822573d6000803e3d6000fd5b505050506040513d602081101561083857600080fd5b81019080805190602001909291905050506108bb576040517f08c379a00000000000000000000000000000000000000000000000000000000081526004018080602001828103825260158152602001807f53656e646572206e6f7420617574686f72697a6564000000000000000000000081525060200191505060405180910390fd5b60011515600060149054906101000a900460ff16151514610944576040517f08c379a00000000000000000000000000000000000000000000000000000000081526004018080602001828103825260158152602001807f4e6f7420696e2072656164206f6e6c79206d6f6465000000000000000000000081525060200191505060405180910390fd5b60008060146101000a81548160ff021916908315150217905550600191505090565b6000610971826120e3565b9050919050565b60008060009054906101000a900473ffffffffffffffffffffffffffffffffffffffff1673ffffffffffffffffffffffffffffffffffffffff16632d883a73836040518263ffffffff1660e01b81526004018082815260200191505060206040518083038186803b1580156109ec57600080fd5b505afa158015610a00573d6000803e3d6000fd5b505050506040513d6020811015610a1657600080fd5b81019080805190602001909291905050509050919050565b600080600260009054906101000a900473ffffffffffffffffffffffffffffffffffffffff1673ffffffffffffffffffffffffffffffffffffffff16630d2020dd600260009054906101000a900473ffffffffffffffffffffffffffffffffffffffff1673ffffffffffffffffffffffffffffffffffffffff16631e7c27cb6040518163ffffffff1660e01b815260040160206040518083038186803b158015610ad757600080fd5b505afa158015610aeb573d6000803e3d6000fd5b505050506040513d6020811015610b0157600080fd5b81019080805190602001909291905050506040518263ffffffff1660e01b81526004018082815260200191505060206040518083038186803b158015610b4657600080fd5b505afa158015610b5a573d6000803e3d6000fd5b505050506040513d6020811015610b7057600080fd5b81019080805190602001909291905050509050600073ffffffffffffffffffffffffffffffffffffffff168173ffffffffffffffffffffffffffffffffffffffff161415610c09576040517f08c379a00000000000000000000000000000000000000000000000000000000081526004018080602001828103825260348152602001806127116034913960400191505060405180910390fd5b8073ffffffffffffffffffffffffffffffffffffffff1663fe9fbb80336040518263ffffffff1660e01b8152600401808273ffffffffffffffffffffffffffffffffffffffff1673ffffffffffffffffffffffffffffffffffffffff16815260200191505060206040518083038186803b158015610c8657600080fd5b505afa158015610c9a573d6000803e3d6000fd5b505050506040513d6020811015610cb057600080fd5b8101908080519060200190929190505050610d33576040517f08c379a00000000000000000000000000000000000000000000000000000000081526004018080602001828103825260158152602001807f53656e646572206e6f7420617574686f72697a6564000000000000000000000081525060200191505060405180910390fd5b610d3d84846121c5565b91505092915050565b60606000809054906101000a900473ffffffffffffffffffffffffffffffffffffffff1673ffffffffffffffffffffffffffffffffffffffff16638a48ac036040518163ffffffff1660e01b815260040160006040518083038186803b158015610daf57600080fd5b505afa158015610dc3573d6000803e3d6000fd5b505050506040513d6000823e3d601f19601f820116820180604052506020811015610ded57600080fd5b810190808051640100000000811115610e0557600080fd5b82810190506020810184811115610e1b57600080fd5b8151856020820283011164010000000082111715610e3857600080fd5b5050929190505050905090565b6000600154905090565b6000610e5a88610966565b15610ead57600073ffffffffffffffffffffffffffffffffffffffff168773ffffffffffffffffffffffffffffffffffffffff161415610ea457610e9d886122b6565b9050610eb2565b60019050610eb2565b600090505b979650505050505050565b600080600260009054906101000a900473ffffffffffffffffffffffffffffffffffffffff1673ffffffffffffffffffffffffffffffffffffffff16630d2020dd600260009054906101000a900473ffffffffffffffffffffffffffffffffffffffff1673ffffffffffffffffffffffffffffffffffffffff16631e7c27cb6040518163ffffffff1660e01b815260040160206040518083038186803b158015610f6657600080fd5b505afa158015610f7a573d6000803e3d6000fd5b505050506040513d6020811015610f9057600080fd5b81019080805190602001909291905050506040518263ffffffff1660e01b81526004018082815260200191505060206040518083038186803b158015610fd557600080fd5b505afa158015610fe9573d6000803e3d6000fd5b505050506040513d6020811015610fff57600080fd5b81019080805190602001909291905050509050600073ffffffffffffffffffffffffffffffffffffffff168173ffffffffffffffffffffffffffffffffffffffff161415611098576040517f08c379a00000000000000000000000000000000000000000000000000000000081526004018080602001828103825260348152602001806127116034913960400191505060405180910390fd5b8073ffffffffffffffffffffffffffffffffffffffff1663fe9fbb80336040518263ffffffff1660e01b8152600401808273ffffffffffffffffffffffffffffffffffffffff1673ffffffffffffffffffffffffffffffffffffffff16815260200191505060206040518083038186803b15801561111557600080fd5b505afa158015611129573d6000803e3d6000fd5b505050506040513d602081101561113f57600080fd5b81019080805190602001909291905050506111c2576040517f08c379a00000000000000000000000000000000000000000000000000000000081526004018080602001828103825260158152602001807f53656e646572206e6f7420617574686f72697a6564000000000000000000000081525060200191505060405180910390fd5b61120c848480806020026020016040519081016040528093929190818152602001838360200280828437600081840152601f19601f82011690508083019250505050505050612398565b91505092915050565b600080600260009054906101000a900473ffffffffffffffffffffffffffffffffffffffff1673ffffffffffffffffffffffffffffffffffffffff16630d2020dd600260009054906101000a900473ffffffffffffffffffffffffffffffffffffffff1673ffffffffffffffffffffffffffffffffffffffff16631e7c27cb6040518163ffffffff1660e01b815260040160206040518083038186803b1580156112be57600080fd5b505afa1580156112d2573d6000803e3d6000fd5b505050506040513d60208110156112e857600080fd5b81019080805190602001909291905050506040518263ffffffff1660e01b81526004018082815260200191505060206040518083038186803b15801561132d57600080fd5b505afa158015611341573d6000803e3d6000fd5b505050506040513d602081101561135757600080fd5b81019080805190602001909291905050509050600073ffffffffffffffffffffffffffffffffffffffff168173ffffffffffffffffffffffffffffffffffffffff1614156113f0576040517f08c379a00000000000000000000000000000000000000000000000000000000081526004018080602001828103825260348152602001806127116034913960400191505060405180910390fd5b8073ffffffffffffffffffffffffffffffffffffffff1663fe9fbb80336040518263ffffffff1660e01b8152600401808273ffffffffffffffffffffffffffffffffffffffff1673ffffffffffffffffffffffffffffffffffffffff16815260200191505060206040518083038186803b15801561146d57600080fd5b505afa158015611481573d6000803e3d6000fd5b505050506040513d602081101561149757600080fd5b810190808051906020019092919050505061151a576040517f08c379a00000000000000000000000000000000000000000000000000000000081526004018080602001828103825260158152602001807f53656e646572206e6f7420617574686f72697a6564000000000000000000000081525060200191505060405180910390fd5b600060149054906101000a900460ff1615611580576040517f08c379a000000000000000000000000000000000000000000000000000000000815260040180806020018281038252602b8152602001806126e6602b913960400191505060405180910390fd5b600061158b84612474565b90507ff9cfee605255fa33725274ecbb6100757021c2c1679bb4538c8fad791751a4d9818560405180831515151581526020018273ffffffffffffffffffffffffffffffffffffffff1673ffffffffffffffffffffffffffffffffffffffff1681526020019250505060405180910390a18092505050919050565b600080600260009054906101000a900473ffffffffffffffffffffffffffffffffffffffff1673ffffffffffffffffffffffffffffffffffffffff16630d2020dd600260009054906101000a900473ffffffffffffffffffffffffffffffffffffffff1673ffffffffffffffffffffffffffffffffffffffff16631e7c27cb6040518163ffffffff1660e01b815260040160206040518083038186803b1580156116af57600080fd5b505afa1580156116c3573d6000803e3d6000fd5b505050506040513d60208110156116d957600080fd5b81019080805190602001909291905050506040518263ffffffff1660e01b81526004018082815260200191505060206040518083038186803b15801561171e57600080fd5b505afa158015611732573d6000803e3d6000fd5b505050506040513d602081101561174857600080fd5b81019080805190602001909291905050509050600073ffffffffffffffffffffffffffffffffffffffff168173ffffffffffffffffffffffffffffffffffffffff1614156117e1576040517f08c379a00000000000000000000000000000000000000000000000000000000081526004018080602001828103825260348152602001806127116034913960400191505060405180910390fd5b8073ffffffffffffffffffffffffffffffffffffffff1663fe9fbb80336040518263ffffffff1660e01b8152600401808273ffffffffffffffffffffffffffffffffffffffff1673ffffffffffffffffffffffffffffffffffffffff16815260200191505060206040518083038186803b15801561185e57600080fd5b505afa158015611872573d6000803e3d6000fd5b505050506040513d602081101561188857600080fd5b810190808051906020019092919050505061190b576040517f08c379a00000000000000000000000000000000000000000000000000000000081526004018080602001828103825260158152602001807f53656e646572206e6f7420617574686f72697a6564000000000000000000000081525060200191505060405180910390fd5b611914836122b6565b915050919050565b600080600260009054906101000a900473ffffffffffffffffffffffffffffffffffffffff1673ffffffffffffffffffffffffffffffffffffffff16630d2020dd600260009054906101000a900473ffffffffffffffffffffffffffffffffffffffff1673ffffffffffffffffffffffffffffffffffffffff16631e7c27cb6040518163ffffffff1660e01b815260040160206040518083038186803b1580156119c557600080fd5b505afa1580156119d9573d6000803e3d6000fd5b505050506040513d60208110156119ef57600080fd5b81019080805190602001909291905050506040518263ffffffff1660e01b81526004018082815260200191505060206040518083038186803b158015611a3457600080fd5b505afa158015611a48573d6000803e3d6000fd5b505050506040513d6020811015611a5e57600080fd5b81019080805190602001909291905050509050600073ffffffffffffffffffffffffffffffffffffffff168173ffffffffffffffffffffffffffffffffffffffff161415611af7576040517f08c379a00000000000000000000000000000000000000000000000000000000081526004018080602001828103825260348152602001806127116034913960400191505060405180910390fd5b8073ffffffffffffffffffffffffffffffffffffffff1663fe9fbb80336040518263ffffffff1660e01b8152600401808273ffffffffffffffffffffffffffffffffffffffff1673ffffffffffffffffffffffffffffffffffffffff16815260200191505060206040518083038186803b158015611b7457600080fd5b505afa158015611b88573d6000803e3d6000fd5b505050506040513d6020811015611b9e57600080fd5b8101908080519060200190929190505050611c21576040517f08c379a00000000000000000000000000000000000000000000000000000000081526004018080602001828103825260158152602001807f53656e646572206e6f7420617574686f72697a6564000000000000000000000081525060200191505060405180910390fd5b60001515600060149054906101000a900460ff16151514611caa576040517f08c379a00000000000000000000000000000000000000000000000000000000081526004018080602001828103825260198152602001807f416c726561647920696e2072656164206f6e6c79206d6f64650000000000000081525060200191505060405180910390fd5b6001600060146101000a81548160ff021916908315150217905550600191505090565b60008060149054906101000a900460ff16905090565b6000611ced612558565b905090565b600080600260009054906101000a900473ffffffffffffffffffffffffffffffffffffffff1673ffffffffffffffffffffffffffffffffffffffff16630d2020dd600260009054906101000a900473ffffffffffffffffffffffffffffffffffffffff1673ffffffffffffffffffffffffffffffffffffffff16631e7c27cb6040518163ffffffff1660e01b815260040160206040518083038186803b158015611d9b57600080fd5b505afa158015611daf573d6000803e3d6000fd5b505050506040513d6020811015611dc557600080fd5b81019080805190602001909291905050506040518263ffffffff1660e01b81526004018082815260200191505060206040518083038186803b158015611e0a57600080fd5b505afa158015611e1e573d6000803e3d6000fd5b505050506040513d6020811015611e3457600080fd5b81019080805190602001909291905050509050600073ffffffffffffffffffffffffffffffffffffffff168173ffffffffffffffffffffffffffffffffffffffff161415611ecd576040517f08c379a00000000000000000000000000000000000000000000000000000000081526004018080602001828103825260348152602001806127116034913960400191505060405180910390fd5b8073ffffffffffffffffffffffffffffffffffffffff1663fe9fbb80336040518263ffffffff1660e01b8152600401808273ffffffffffffffffffffffffffffffffffffffff1673ffffffffffffffffffffffffffffffffffffffff16815260200191505060206040518083038186803b158015611f4a57600080fd5b505afa158015611f5e573d6000803e3d6000fd5b505050506040513d6020811015611f7457600080fd5b8101908080519060200190929190505050611ff7576040517f08c379a00000000000000000000000000000000000000000000000000000000081526004018080602001828103825260158152602001807f53656e646572206e6f7420617574686f72697a6564000000000000000000000081525060200191505060405180910390fd5b600060149054906101000a900460ff161561205d576040517f08c379a000000000000000000000000000000000000000000000000000000000815260040180806020018281038252602b8152602001806126e6602b913960400191505060405180910390fd5b600061206884612601565b90507fe39119db1877d19873ffb44540ac1dbd9ca72da5413d351392ce967885031aa4818560405180831515151581526020018273ffffffffffffffffffffffffffffffffffffffff1673ffffffffffffffffffffffffffffffffffffffff1681526020019250505060405180910390a18092505050919050565b60008060009054906101000a900473ffffffffffffffffffffffffffffffffffffffff1673ffffffffffffffffffffffffffffffffffffffff1663f6a3d24e836040518263ffffffff1660e01b8152600401808273ffffffffffffffffffffffffffffffffffffffff1673ffffffffffffffffffffffffffffffffffffffff16815260200191505060206040518083038186803b15801561218357600080fd5b505afa158015612197573d6000803e3d6000fd5b505050506040513d60208110156121ad57600080fd5b81019080805190602001909291905050509050919050565b60008060009054906101000a900473ffffffffffffffffffffffffffffffffffffffff1673ffffffffffffffffffffffffffffffffffffffff1663b6d7238684846040518363ffffffff1660e01b8152600401808373ffffffffffffffffffffffffffffffffffffffff1673ffffffffffffffffffffffffffffffffffffffff1681526020018215151515815260200192505050602060405180830381600087803b15801561227357600080fd5b505af1158015612287573d6000803e3d6000fd5b505050506040513d602081101561229d57600080fd5b8101908080519060200190929190505050905092915050565b60008060009054906101000a900473ffffffffffffffffffffffffffffffffffffffff1673ffffffffffffffffffffffffffffffffffffffff1663440b7ca0836040518263ffffffff1660e01b8152600401808273ffffffffffffffffffffffffffffffffffffffff1673ffffffffffffffffffffffffffffffffffffffff16815260200191505060206040518083038186803b15801561235657600080fd5b505afa15801561236a573d6000803e3d6000fd5b505050506040513d602081101561238057600080fd5b81019080805190602001909291905050509050919050565b6000806001905060008090505b835181101561246a5760006123cc8583815181106123bf57fe5b6020026020010151612601565b90507fe39119db1877d19873ffb44540ac1dbd9ca72da5413d351392ce967885031aa4818684815181106123fc57fe5b602002602001015160405180831515151581526020018273ffffffffffffffffffffffffffffffffffffffff1673ffffffffffffffffffffffffffffffffffffffff1681526020019250505060405180910390a182801561245a5750805b92505080806001019150506123a5565b5080915050919050565b60008060009054906101000a900473ffffffffffffffffffffffffffffffffffffffff1673ffffffffffffffffffffffffffffffffffffffff166329092d0e836040518263ffffffff1660e01b8152600401808273ffffffffffffffffffffffffffffffffffffffff1673ffffffffffffffffffffffffffffffffffffffff168152602001915050602060405180830381600087803b15801561251657600080fd5b505af115801561252a573d6000803e3d6000fd5b505050506040513d602081101561254057600080fd5b81019080805190602001909291905050509050919050565b60008060009054906101000a900473ffffffffffffffffffffffffffffffffffffffff1673ffffffffffffffffffffffffffffffffffffffff1663949d225d6040518163ffffffff1660e01b815260040160206040518083038186803b1580156125c157600080fd5b505afa1580156125d5573d6000803e3d6000fd5b505050506040513d60208110156125eb57600080fd5b8101908080519060200190929190505050905090565b60008060009054906101000a900473ffffffffffffffffffffffffffffffffffffffff1673ffffffffffffffffffffffffffffffffffffffff16630a3b0a4f836040518263ffffffff1660e01b8152600401808273ffffffffffffffffffffffffffffffffffffffff1673ffffffffffffffffffffffffffffffffffffffff168152602001915050602060405180830381600087803b1580156126a357600080fd5b505af11580156126b7573d6000803e3d6000fd5b505050506040513d60208110156126cd57600080fd5b8101908080519060200190929190505050905091905056fe496e2072656164206f6e6c79206d6f64653a2072756c65732063616e6e6f74206265206d6f646966696564496e677265737320636f6e7472616374206d75737420686176652041646d696e20636f6e74726163742072656769737465726564a265627a7a723058203ab14b1e201e4bc0de98ebb15110dd1720879cc46bf960d4ac8f03e21b440b8564736f6c63430005090032",
  "source": "pragma solidity 0.5.9;\n\nimport \"./AccountRulesProxy.sol\";\nimport \"./AccountRulesList.sol\";\nimport \"./AccountIngress.sol\";\nimport \"./Admin.sol\";\nimport \"./AccountStorage.sol\";\n\n\ncontract AccountRules is AccountRulesProxy, AccountRulesList {\n\n    // in read-only mode rules can't be added/removed\n    // this will be used to protect data when upgrading contracts\n    bool private readOnlyMode = false;\n    // version of this contract: semver like 1.2.14 represented like 001002014\n    uint private version = 3000000;\n\n    AccountIngress private ingressContract;\n\n    modifier onlyOnEditMode() {\n        require(!readOnlyMode, \"In read only mode: rules cannot be modified\");\n        _;\n    }\n\n    modifier onlyAdmin() {\n        address adminContractAddress = ingressContract.getContractAddress(ingressContract.ADMIN_CONTRACT());\n\n        require(adminContractAddress != address(0), \"Ingress contract must have Admin contract registered\");\n        require(Admin(adminContractAddress).isAuthorized(msg.sender), \"Sender not authorized\");\n        _;\n    }\n\n    constructor (AccountIngress _ingressContract, AccountStorage _storage) public {\n        setStorage(_storage);\n        ingressContract = _ingressContract;\n    }\n\n    // VERSION\n    function getContractVersion() external view returns (uint) {\n        return version;\n    }\n\n    // READ ONLY MODE\n    function isReadOnly() external view returns (bool) {\n        return readOnlyMode;\n    }\n\n    function enterReadOnly() external onlyAdmin returns (bool) {\n        require(readOnlyMode == false, \"Already in read only mode\");\n        readOnlyMode = true;\n        return true;\n    }\n\n    function exitReadOnly() external onlyAdmin returns (bool) {\n        require(readOnlyMode == true, \"Not in read only mode\");\n        readOnlyMode = false;\n        return true;\n    }\n\n    function transactionAllowed(\n        address sender,\n        address target, // target\n        uint256, // value\n        uint256, // gasPrice\n        uint256, // gasLimit\n        bytes calldata // payload\n    ) external view returns (bool) {\n        if (\n            accountPermitted (sender)\n        ) {\n            if (target == address(0)) {\n                // contract creation\n                return getCanCreateContracts(sender);\n            }\n            return true;\n        } else {\n            return false;\n        }\n    }\n\n    function accountPermitted(\n        address _account\n    ) public view returns (bool) {\n        return exists(_account);\n    }\n\n    function addAccount(\n        address account\n    ) external onlyAdmin onlyOnEditMode returns (bool) {\n        bool added = add(account);\n        emit AccountAdded(added, account);\n        return added;\n    }\n\n    function removeAccount(\n        address account\n    ) external onlyAdmin onlyOnEditMode returns (bool) {\n        bool removed = remove(account);\n        emit AccountRemoved(removed, account);\n        return removed;\n    }\n    \n    function setCreateContractPermission(address _account, bool _allowed) public onlyAdmin returns (bool){\n        return setCanCreateContracts(_account, _allowed);\n    }\n    \n    function getCreateContractPermission(address _account) public onlyAdmin returns (bool){\n        return getCanCreateContracts(_account);\n    }\n\n    function getSize() external view returns (uint) {\n        return size();\n    }\n\n    function addAccounts(address[] calldata accounts) external onlyAdmin returns (bool) {\n        return addAll(accounts);\n    }\n}\n",
  "sourcePath": "/Users/frank/Desktop/fine-grained-permissioning-demo/permissioning-smart-contract/contracts/AccountRules.sol",
  "compiler": {
    "name": "solc",
    "version": "0.5.9+commit.e560f70d.Emscripten.clang"
  },
  "schemaVersion": "3.4.4",
  "updatedAt": "2022-03-16T23:53:35.470Z",
  "devdoc": {
    "methods": {}
  },
  "userdoc": {
    "methods": {}
  }
}